:100000000C949E000C94C6000C94C6000C94C60080
:100010000C94C6000C94C6000C94C6000C94C60048
:100020000C94C6000C94C6000C94C6000C94C60038
:100030000C94C6000C94C6000C94C6000C94C60028
:100040000C94EF030C94C6000C94BD030C9497031E
:100050000C94C6000C94C6000C94C6000C94C60008
:100060000C94C6000C94C60007634236B79BD8A711
:100070001A39685618AEBAAB558C1D3CB7CC5763CD
:10008000BD6DEDFD753EF6177231BF000000803F7B
:1000900008000000BE922449123EABAAAA2ABECD97
:1000A000CCCC4C3E00000080BEABAAAAAA3E000009
:1000B0000000BF000000803F000000000008417801
:1000C000D3BB4387D1133D190E3CC3BD4282AD2B38
:1000D0003E68EC8276BED98FE1A93E4C80EFFFBE30
:1000E00001C4FF7F3F000000000000000008000284
:1000F00001000003040700000000000000000000F1
:100100000000250028002B0000000000240027002C
:100110002A00040404040404040402020202020289
:1001200003030303030301020408102040800102BB
:1001300004081020010204081020390411241FBEF5
:10014000CFEFD8E0DEBFCDBF11E0A0E0B1E0E8EB3B
:10015000F4E102C005900D92AA31B107D9F721E070
:10016000AAE1B1E001C01D92A83CB207E1F710E09E
:10017000CEE9D0E004C02197FE010E94400ACD39AB
:10018000D107C9F70E947E040C945A0A0C9400000F
:1001900090E0FC01EA5DFE4F24918E5E9E4FFC01D3
:1001A0008491882399F090E0880F991FFC01E85F03
:1001B000FE4FA591B491FC01E250FF4F85919491BF
:1001C0008FB7F894EC91E22BEC938FBF0895AF9228
:1001D000BF92CF92DF92EF92FF920F931F93CF9334
:1001E000DF936C017B018B01040F151FEB015E0196
:1001F000AE18BF08C017D10759F06991D601ED912B
:10020000FC910190F081E02DC6010995892B79F7C9
:10021000C501DF91CF911F910F91FF90EF90DF907B
:10022000CF90BF90AF900895FC01538D448D252F42
:1002300030E0842F90E0821B930B541710F0CF9680
:10024000089501970895FC01918D828D981761F0B2
:10025000A28DAE0FBF2FB11D5D968C91928D9F5FC9
:100260009F73928F90E008958FEF9FEF0895FC01A8
:10027000918D828D981731F0828DE80FF11D858D5B
:1002800090E008958FEF9FEF0895FC01918D228DEE
:10029000892F90E0805C9F4F821B91098F73992773
:1002A000089587E291E00E94450121E0892B09F43D
:1002B00020E0822F089580E090E0892B29F00E94B1
:1002C000510181110C9400000895FC01A48DA80F28
:1002D000B92FB11DA35ABF4F2C91848D90E0019688
:1002E0008F739927848FA689B7892C93A089B189A8
:1002F0008C91837080648C93938D848D981306C049
:100300000288F389E02D80818F7D80830895EF92AC
:10031000FF920F931F93CF93DF93EC0181E0888FBF
:100320009B8D8C8D98131AC0E889F989808185FF8F
:1003300015C09FB7F894EE89FF896083E889F98931
:1003400080818370806480839FBF81E090E0DF9133
:10035000CF911F910F91FF90EF900895F62E0B8D86
:1003600010E00F5F1F4F0F731127E02E8C8D8E1141
:100370000CC00FB607FCFACFE889F989808185FFA8
:10038000F5CFCE010E946501F1CFEB8DEC0FFD2F73
:10039000F11DE35AFF4FF0829FB7F8940B8FEA8963
:1003A000FB8980818062CFCFCF93DF93EC01888D72
:1003B0008823B9F0AA89BB89E889F9898C9185FDE0
:1003C00003C0808186FD0DC00FB607FCF7CF8C916E
:1003D00085FFF2CF808185FFEDCFCE010E946501C0
:1003E000E9CFDF91CF91089590E0FC01E651FF4FF6
:1003F0002491FC01EA5DFE4F3491FC01EE5EFE4F5C
:10040000E491EE23C9F0222339F0233001F1A8F45E
:10041000213019F1223029F1F0E0EE0FFF1FE250F8
:10042000FF4FA591B4918FB7F894EC91611126C05C
:1004300030953E233C938FBF08952730A9F0283094
:10044000C9F0243049F7809180008F7D03C08091EE
:1004500080008F7780938000DFCF84B58F7784BD55
:10046000DBCF84B58F7DFBCF8091B0008F778093F9
:10047000B000D2CF8091B0008F7DF9CF3E2BDACF84
:100480003FB7F89480911F0190912001A091210124
:10049000B091220126B5A89B05C02F3F19F0019607
:1004A000A11DB11D3FBFBA2FA92F982F8827BC01CE
:1004B000CD01620F711D811D911D42E0660F771FF6
:1004C000881F991F4A95D1F708958F929F92AF92F6
:1004D000BF92CF92DF92EF92FF926B017C010E945C
:1004E00040024B015C01C114D104E104F104B9F0F4
:1004F0000E944002681979098A099B09683E734085
:100500008105910580F321E0C21AD108E108F108C4
:1005100088EE880E83E0981EA11CB11CE4CFFF90EA
:10052000EF90DF90CF90BF90AF909F908F90089505
:100530002FB7F89460911B0170911C0180911D01EF
:1005400090911E012FBF089561E089E00E94F4019F
:1005500061E08AE00E94F40161E08BE00E94F40116
:1005600061E08CE00E94F40160E082E00E94F4010E
:1005700060E083E00E94F40160E084E00E94F40106
:1005800060E085E00E94F40160E086E00E94F401F2
:1005900060E087E00E94F40160E088E00C94F401E0
:1005A0001F93CF93DF93182FEB010E94A40260E00A
:1005B000812F0E94F401CA30D10508F0B4C0FE01B9
:1005C000EC51FD4F0C94400AEE020D0323033D0352
:1005D0004F0361036F03850387038D0361E082E0AE
:1005E0000E94F40161E083E00E94F40161E084E094
:1005F0000E94F40161E085E00E94F40161E086E080
:100600000E94F40161E087E00E94F40160E088E06C
:10061000DF91CF911F910C94F40160E082E00E9481
:10062000F40161E083E00E94F40161E084E00E9453
:10063000F40160E085E00E94F40160E086E00E9441
:10064000F40160E0E0CF61E082E00E94F40161E04B
:1006500083E00E94F40160E084E00E94F40161E024
:1006600085E00E94F40161E086E00E94F40160E010
:1006700087E00E94F40161E0CACF61E082E00E945D
:10068000F40161E083E00E94F40161E084E00E94F3
:10069000F40161E085E00E94F40160E0E5CF60E0F4
:1006A00082E00E94F40161E083E00E94F40161E0D5
:1006B00084E00E94F40160E085E00E94F40160E0C3
:1006C0001FC061E082E00E94F40160E083E00E94CC
:1006D000F40161E084E00E94F40161E0EDCF61E0AB
:1006E00082E00E94F40160E083E00E94F40161E096
:1006F00084E00E94F40161E085E00E94F40161E081
:1007000086E00E94F40161E0B3CF61E087CF61E051
:1007100082E00E94F40161E0E7CF61E082E00E94A4
:10072000F40161E0D3CFDF91CF911F9108951F9223
:100730000F920FB60F9211242F933F934F935F9315
:100740006F937F938F939F93AF93BF93EF93FF9399
:1007500087E291E00E946501FF91EF91BF91AF9117
:100760009F918F917F916F915F914F913F912F91C9
:100770000F900FBE0F901F9018951F920F920FB6FB
:100780000F9211242F938F939F93EF93FF93E091F8
:100790003701F09138018081E0913D01F0913E01F7
:1007A00082FD1BC09081809140018F5F8F732091EB
:1007B0004101821741F0E0914001F0E0E95DFE4F18
:1007C000958F80934001FF91EF919F918F912F9191
:1007D0000F900FBE0F901F9018958081F4CF1F923D
:1007E0000F920FB60F9211242F933F938F939F93E5
:1007F000AF93BF9380911B0190911C01A0911D01AB
:10080000B0911E0130911A0123E0230F2D3758F5C6
:100810000196A11DB11D20931A0180931B01909395
:100820001C01A0931D01B0931E0180911F019091A6
:100830002001A0912101B09122010196A11DB11DBD
:1008400080931F0190932001A0932101B093220176
:10085000BF91AF919F918F913F912F910F900FBEBC
:100860000F901F90189526E8230F0296A11DB11D29
:10087000D2CFCF92DF92EF92FF92E7E2F1E01382C4
:10088000128288EEC82E83E0D82EE12CF12CC4828F
:10089000D582E682F7828BE091E09183808385ECBC
:1008A00090E09587848784EC90E09787868780EC3A
:1008B00090E0918B808B81EC90E0938B828B82EC2B
:1008C00090E0958B848B86EC90E0978B868B118ED5
:1008D000128E138E148E0E949802A70196010E9418
:1008E0001E0A2093C4013093C5014093C601509362
:1008F000C701FF90EF90DF90CF900895CF93DF93E3
:1009000000D000D000D0CDB7DEB7789484B5826037
:1009100084BD84B5816084BD85B5826085BD85B5A3
:10092000816085BD80916E00816080936E00109221
:10093000810080918100826080938100809181009C
:10094000816080938100809180008160809380002D
:100950008091B10084608093B1008091B00081608B
:100960008093B00080917A00846080937A008091B7
:100970007A00826080937A0080917A00816080930F
:100980007A0080917A00806880937A001092C1008A
:10099000E0913701F091380182E08083E0913301EA
:1009A000F09134011082E0913501F09136018FEC25
:1009B000808310923F01E0913B01F0913C0186E081
:1009C0008083E0913901F0913A01808180618083D8
:1009D000E0913901F0913A01808188608083E09153
:1009E0003901F0913A01808180688083E09139017A
:1009F000F0913A0180818F7D808382E00E94C8005F
:100A000083E00E94C80084E00E94C80085E00E9444
:100A1000C80086E00E94C80087E00E94C80088E005
:100A20000E94C80089E00E94C8008AE00E94C800B5
:100A30008BE00E94C8008CE00E94C80060E087E262
:100A400091E00E94870188EE882E83E0982EA12CE9
:100A5000B12C0AE010E00E949802A50194010E94C6
:100A60001E0A69017A0187E291E00E944501892B03
:100A7000E1F087E291E00E9423019E838D83893C0F
:100A8000910509F074C00E949802A50194010E948A
:100A90001E0A209323013093240140932501509393
:100AA000260110920601109205016091C401709117
:100AB000C5018091C6019091C7016C197D098E090D
:100AC0009F0997FF03C060E070E0CB012CE330E0AA
:100AD00040E050E00E941E0A8091050190910601BD
:100AE000029609F0AAC060E089E00E94F40160E08B
:100AF0008AE00E94F40160E08BE00E94F40160E073
:100B00008CE00E94F40161E088E00E94F4010E9400
:100B10009802C0900001D0900101E0900201F09095
:100B20000301C616D706E806F906A0F48091040171
:100B300091E08927809304010E94980268517C4FBC
:100B40008F4F9F4F609300017093010180930201CA
:100B50009093030180E090E0892B09F47CCF0E9400
:100B60005101882309F477CF0E94000074CF2D81B2
:100B70003E812A3C3105B9F48091230190912401F2
:100B8000A0912501B09126018093C4019093C501E5
:100B9000A093C601B093C7018FEF9FEF909306011A
:100BA0008093050182CF209005013090060137FC2B
:100BB0007CCFB101032C000C880B990B0E941A0703
:100BC0009B01AC0160E070E088E493E40E941308AC
:100BD0002B013C016091230170912401809125013A
:100BE000909126010E941A0769837A838B839C83E4
:100BF0002D813E81B90190E080E00E941807A30199
:100C000092010E94A6079B01AC0169817A818B81C8
:100C10009C810E9476060E94E206609323017093F5
:100C2000240180932501909326013FEF231A330A74
:100C3000309206012092050138CF2330310541055D
:100C4000510528F480910401882309F44BC03A83AC
:100C50002983C901B8010E940A0A7B01BC0189E00D
:100C600090E00E94D00262E070E080E090E00E949C
:100C70006502C701B8010E940A0ABC018AE090E03F
:100C80000E94D00262E070E080E090E00E94650285
:100C900089819A8164E670E00E940A0ACB01B8015A
:100CA0000E940A0ABC018BE090E00E94D00262E040
:100CB00070E080E090E00E94650289819A8168EE90
:100CC00073E00E940A0ACB01B8010E940A0ABC0123
:100CD0008CE090E00E94D00262E070E080E090E062
:100CE0000E9465020E94A40212CF5058BB27AA2777
:100CF0000E948D060C946C070E945E0738F00E94DB
:100D0000650720F039F49F3F19F426F40C945B0733
:100D10000EF4E095E7FB0C945507E92F0E947D0740
:100D200058F3BA17620773078407950720F079F420
:100D3000A6F50C949F070EF4E0950B2EBA2FA02D6C
:100D40000B01B90190010C01CA01A0011124FF2778
:100D5000591B99F0593F50F4503E68F11A16F04073
:100D6000A22F232F342F4427585FF3CF4695379572
:100D70002795A795F0405395C9F77EF41F16BA0B37
:100D8000620B730B840BBAF09150A1F0FF0FBB1FE5
:100D9000661F771F881FC2F70EC0BA0F621F731F2E
:100DA000841F48F4879577956795B795F7959E3F8B
:100DB00008F0B0CF9395880F08F09927EE0F97951C
:100DC000879508950E94E9066894B1110C94A007D4
:100DD00008950E94850788F09F5798F0B92F9927AA
:100DE000B751B0F0E1F0660F771F881F991F1AF016
:100DF000BA95C9F714C0B13091F00E949F07B1E0D5
:100E000008950C949F07672F782F8827B85F39F0D3
:100E1000B93FCCF3869577956795B395D9F73EF4AE
:100E200090958095709561957F4F8F4F9F4F089556
:100E3000E89409C097FB3EF4909580957095619574
:100E40007F4F8F4F9F4F9923A9F0F92F96E9BB272A
:100E50009395F695879577956795B795F111F8CFA6
:100E6000FAF4BB0F11F460FF1BC06F5F7F4F8F4F11
:100E70009F4F16C0882311F096E911C0772321F007
:100E80009EE8872F762F05C0662371F096E8862F9F
:100E900070E060E02AF09A95660F771F881FDAF7F6
:100EA000880F9695879597F9089597F99F6780E839
:100EB00070E060E008959FEF80EC089500240A94AC
:100EC0001616170618060906089500240A94121625
:100ED0001306140605060895092E0394000C11F458
:100EE000882352F0BB0F40F4BF2B11F460FF04C005
:100EF0006F5F7F4F8F4F9F4F089557FD9058440F5E
:100F0000551F59F05F3F71F04795880F97FB991F68
:100F100061F09F3F79F08795089512161306140625
:100F2000551FF2CF4695F1DF08C0161617061806B2
:100F3000991FF1CF86957105610508940895E8948D
:100F4000BB2766277727CB0197F908950E94B90739
:100F50000C946C070E945E0738F00E94650720F031
:100F6000952311F00C9455070C945B0711240C94F5
:100F7000A0070E947D0770F3959FC1F3950F50E085
:100F8000551F629FF001729FBB27F00DB11D639F3B
:100F9000AA27F00DB11DAA1F649F6627B00DA11DE1
:100FA000661F829F2227B00DA11D621F739FB00D87
:100FB000A11D621F839FA00D611D221F749F3327F7
:100FC000A00D611D231F849F600D211D822F762F90
:100FD0006A2F11249F5750409AF0F1F088234AF06D
:100FE000EE0FFF1FBB1F661F771F881F91505040D9
:100FF000A9F79E3F510580F00C9455070C94A0076B
:101000005F3FE4F3983ED4F3869577956795B7955F
:10101000F795E7959F5FC1F7FE2B880F911D969579
:10102000879597F90895FA01EE0FFF1F3096210575
:101030003105A1F16115710561F48038BFE39B07AB
:1010400049F168949038810561F08038BFEF9B07C3
:1010500041F099234AF5FF3FE1053105210519F1DA
:10106000E8940894E795D901AA2329F4AB2FBE2F61
:10107000F85FD0F310C0FF5F70F4A695E0F7F73982
:1010800050F019F0FF3A38F49F779F930DD00F90EE
:1010900007FC9058089546F00C945B0760E070E000
:1010A00080E89FE308954FE79F775F934F933F93C7
:1010B0002F930E940E092F913F914F915F910E94B3
:1010C000A6070C946B0829F416F00C9455070C94A1
:1010D0009F070C945B070E948507A8F39638A0F73A
:1010E00007F80F92E8942BE33AEA48EB5FE70E9497
:1010F000BC070F920F920F924DB75EB70F920E94EE
:101100005609E8E6F0E00E949D084F915F91EF914B
:10111000FF91E595EE1FFF1F49F0FE57E068442759
:10112000EE0F441FFA95E1F74195550B0E94D00848
:101130000F9007FE0C94C4080895DF93CF931F937C
:101140000F93FF92EF92DF927B018C01689406C0AF
:10115000DA2EEF010E94B907FE01E894A5912591CE
:10116000359145915591A6F3EF010E948D06FE0140
:101170009701A801DA9469F7DF90EF90FF900F9143
:101180001F91CF91DF9108959B01AC0160E070E069
:1011900080E89FE30C948A090C9455070C94FC0991
:1011A0000E948507D8F39923C9F3940F511DA3F327
:1011B0009150504094F059F0882332F0660F771F19
:1011C000881F91505040C1F79E3F51052CF7880F62
:1011D000911D9695879597F908955F3FACF0983EDD
:1011E0009CF0BB27869577956795B79508F4B16015
:1011F0009395C1F7BB0F58F711F460FFE8CF6F5F0D
:101200007F4F8F4F9F4FE3CF0C94A00716F00C94A5
:10121000FC090C945B0768940C9455070E948507A1
:10122000A8F39923C1F3AEF3DF93CF931F930F93EA
:10123000FF92C92FDD2788232AF02197660F771F99
:10124000881FDAF720E030E040E85FEB9FE3883961
:1012500020F0803E38F021968F770E947606E0E9F4
:10126000F0E004C00E947606EDEBF0E00E949D08DD
:101270008B01BE01EC01FB2E6F5771097595771F2D
:10128000880B990B0E941A0728E132E741E35FE3DC
:101290000E94B907AF2D9801AE01FF900F911F91E9
:1012A000CF91DF910E948D060C946C07FA01DC014E
:1012B000AA0FBB1F9B01AC01BF5728F4222733277D
:1012C0004427507820C0B75190F4AB2F00244695A6
:1012D00037952795011CA395D2F3002071F0220FBA
:1012E000331F441FB395DAF30ED00C9475066130AA
:1012F0007105A0E88A07B94630F49B01AC01662766
:10130000772788279078309621F020833183428395
:10131000538308950E949E090C946C070E946507F0
:1013200058F00E945E0740F029F45F3F29F00C94CA
:10133000550751110C94A0070C945B070E947D0780
:1013400068F39923B1F3552391F3951B550BBB27F4
:10135000AA2762177307840738F09F5F5F4F220F39
:10136000331F441FAA1FA9F335D00E2E3AF0E0E830
:1013700032D091505040E695001CCAF72BD0FE2F7A
:1013800029D0660F771F881FBB1F2617370748070E
:10139000AB07B0E809F0BB0B802DBF01FF279358C6
:1013A0005F4F3AF09E3F510578F00C9455070C942E
:1013B000A0075F3FE4F3983ED4F386957795679551
:1013C000B795F7959F5FC9F7880F911D96958795FB
:1013D00097F90895E1E0660F771F881FBB1F62171A
:1013E00073078407BA0720F0621B730B840BBA0BD8
:1013F000EE1F88F7E09508959F3F31F0915020F45B
:10140000879577956795B795880F911D96958795E0
:1014100097F9089597FB072E16F4009407D077FDEF
:1014200009D00E94460A07FC05D03EF490958195AC
:101430009F4F0895709561957F4F0895A1E21A2EF0
:10144000AA1BBB1BFD010DC0AA1FBB1FEE1FFF1F68
:10145000A217B307E407F50720F0A21BB30BE40BB8
:10146000F50B661F771F881F991F1A9469F76095FF
:101470007095809590959B01AC01BD01CF010895B9
:10148000EE0FFF1F0590F491E02D0994AA1BBB1BE2
:1014900051E107C0AA1FBB1FA617B70710F0A61B74
:1014A000B70B881F991F5A95A9F780959095BC0195
:0814B000CD010895F894FFCF6F
:1014B800D007000001FEFF000000008701E70014CC
:0A14C80001D40145012301370100A2
:107E0000112484B714BE81FFF0D085E080938100F7
:107E100082E08093C00088E18093C10086E0809377
:107E2000C20080E18093C4008EE0C9D0259A86E02C
:107E300020E33CEF91E0309385002093840096BBD3
:107E4000B09BFECF1D9AA8958150A9F7CC24DD24C4
:107E500088248394B5E0AB2EA1E19A2EF3E0BF2EE7
:107E6000A2D0813461F49FD0082FAFD0023811F036
:107E7000013811F484E001C083E08DD089C08234E0
:107E800011F484E103C0853419F485E0A6D080C0E4
:107E9000853579F488D0E82EFF2485D0082F10E0AE
:107EA000102F00270E291F29000F111F8ED06801E7
:107EB0006FC0863521F484E090D080E0DECF843638
:107EC00009F040C070D06FD0082F6DD080E0C81688
:107ED00080E7D80618F4F601B7BEE895C0E0D1E017
:107EE00062D089930C17E1F7F0E0CF16F0E7DF06D8
:107EF00018F0F601B7BEE89568D007B600FCFDCFD4
:107F0000A601A0E0B1E02C9130E011968C91119780
:107F100090E0982F8827822B932B1296FA010C0160
:107F200087BEE89511244E5F5F4FF1E0A038BF0790
:107F300051F7F601A7BEE89507B600FCFDCF97BE46
:107F4000E89526C08437B1F42ED02DD0F82E2BD052
:107F50003CD0F601EF2C8F010F5F1F4F84911BD097
:107F6000EA94F801C1F70894C11CD11CFA94CF0C13
:107F7000D11C0EC0853739F428D08EE10CD085E9AC
:107F80000AD08FE07ACF813511F488E018D01DD067
:107F900080E101D065CF982F8091C00085FFFCCF94
:107FA0009093C60008958091C00087FFFCCF809118
:107FB000C00084FD01C0A8958091C6000895E0E648
:107FC000F0E098E1908380830895EDDF803219F02E
:107FD00088E0F5DFFFCF84E1DECF1F93182FE3DFCA
:107FE0001150E9F7F2DF1F91089580E0E8DFEE27F6
:047FF000FF270994CA
:027FFE00040479
:0400000300007E007B
:00000001FF
